:020000040800F2
:100000000006002001010008D5140008DB130008D9
:10001000D1140008AB020008E1170008000000003E
:1000200000000000000000000000000005160008AD
:10003000AF02000800000000D914000807160008ED
:100040001B0100081B0100081B0100081B01000820
:100050001B0100081B0100081B0100081B01000810
:100060001B0100081B0100081B0100081B01000800
:100070001B0100081B0100081B0100081B010008F0
:100080001B0100081B0100081B0100081B010008E0
:100090001B0100081B0100081B0100081B010008D0
:1000A0001B0100081B0100081B0100081B010008C0
:1000B0001B0100081B0100081B0100081B010008B0
:1000C0001B0100081B0100081B0100081B010008A0
:1000D0001B0100081B0100081B0100081B01000890
:1000E0001B0100081B0100081B010008DFF80CD0F1
:1000F00000F0BAF800480047AD6100080006002093
:100100000648804706480047FEE7FEE7FEE7FEE7B1
:10011000FEE7FEE7FEE7FEE7FEE7FEE775160008EE
:10012000ED000008202A04DB203A21FA02F0002129
:10013000704721FA02F3D040C2F1200291400843F7
:100140001946704740EA01039B0703D009E008C93C
:10015000121F08C0042AFAD203E011F8013B00F88C
:10016000013B521EF9D27047D2B201E000F8012BD8
:10017000491EFBD270470022F6E710B513460A4627
:1001800004461946FFF7F0FF204610BDCAB2401ED4
:1001900010F8011F8A4202D00029F9D100207047CF
:1001A000421C10F8011B0029FBD1801A704730B5A2
:1001B00004460020034600E05B1C934203D2E05C4F
:1001C000CD5C401BF8D030BD30B503461D783DB145
:1001D0000A4612F8014B1CB1AC42FAD15B1CF5E7A0
:1001E000181A30BD30B50546002008E00A4602E086
:1001F000A34207D0521C1378002BF9D1401C2C5C71
:10020000002CF3D130BD2DE9F05F05460020924669
:100210009B4688460646814640241BE028464146C8
:1002200047462246FFF77EFF53465A46C01A914181
:1002300010D311461846224600F028F82D1A67EB15
:1002400001084F4622460120002100F01FF817EB5D
:1002500000094E41201EA4F10104DFDC484631466E
:100260002A464346BDE8F09F064C074D06E0E0688D
:1002700040F0010394E8070098471034AC42F6D3ED
:10028000FFF738FF0065000820650008202A04DB1E
:10029000203A00FA02F1002070479140C2F1200399
:1002A00020FA03F319439040704700BFFEE7704700
:1002B00072B600BFFEE7000070B5044600F0A6F974
:1002C00006462546681C10B104480078054400BF66
:1002D00000F09CF9801BA842FAD370BD18000020E2
:1002E0002DE9F8470346002294466EE14FF00108DD
:1002F00008FA02F4D1F8008008EA0400A0427DD197
:10030000DFF8DCA2D1F80480A8EB0A09D0453AD086
:1003100014DCB8F1030F50D009DCB8F1000F31D074
:10032000B8F1010F1CD0B8F1020F49D120E0B8F1AB
:10033000110F18D0B8F1120F42D11EE0B9F5881F85
:1003400025D006DCB9F5803F20D0B9F5801F37D124
:100350001AE0B9F5001F18D0B9F5041F30D117E025
:10036000D1F80CC02DE0D1F80C8008F1040C28E085
:10037000D1F80C8008F1080C23E0D1F80C8008F1CA
:100380000C0C1EE000BF00BF00BF00BF00BF00BFDD
:10039000D1F80880B8F1000F02D14FF0040C0BE047
:1003A000D1F80880B8F1010F03D14FF0080C1C619F
:1003B00002E04FF0080C5C6103E04FF0000C00E03D
:1003C00000BF00BFFF2801D8984601E003F10408F0
:1003D0004646FF2802D84FEA820803E0A2F1080847
:1003E0004FEA88084746D6F800804FF00F0909FA0F
:1003F00007F928EA09080CFA07F900E088E048EA5A
:100400000908C6F80080D1F8048008F08058B8F1D7
:10041000805F7DD100BFDFF8CC81D8F8188048F02C
:100420000108DFF8C091C9F81880C846D8F81880CC
:1004300008F00108CDF8008000BF00BF4FEAB938CE
:100440004FEA920958F829504FEA82784FEA187912
:100450004FF00F0808FA09F825EA0805DFF8888147
:10046000434502D14FF0000816E0DFF88081434594
:1004700002D14FF001080FE0DFF87481434502D14B
:100480004FF0020808E0DFF86C81434502D14FF0DD
:10049000030801E04FF004084FEA82794FEA197926
:1004A00008FA09F848EA0505DFF84C814FEA920995
:1004B00048F82950D1F8048008F48038B8F5803F16
:1004C0000AD1DFF83881D8F8008048EA0008DFF860
:1004D0002C91C9F8008009E0DFF82081D8F800806D
:1004E00028EA0008DFF81491C9F80080D1F80480E8
:1004F00008F40038B8F5003F10D1DFF8008108F1AA
:100500000408D8F8008048EA0008DFF8F09000E01E
:100510005AE009F10409C9F800800DE0DFF8DC8039
:1005200008F10408D8F8008028EA0008DFF8CC9029
:1005300009F10409C9F80080D1F8048008F4801892
:10054000B8F5801F0ED1DFF8B48008F10808D8F89C
:10055000008048EA0008DFF8A49009F10809C9F80A
:1005600000800DE0DFF8948008F10808D8F80080DA
:1005700028EA0008DFF8849009F10809C9F800802A
:10058000D1F8048008F40018B8F5001F0ED1DFF888
:100590006C8008F10C08D8F8008048EA0008DFF801
:1005A0005C9009F10C09C9F800800DE0DFF84C807F
:1005B00008F10C08D8F8008028EA0008DFF83C9021
:1005C00009F10C09C9F80080521CD1F8008028FA02
:1005D00002F8B8F1000F7FF489AEBDE8F88700009B
:1005E000000011100010024000080140000C014002
:1005F00000100140001401400800014000040140C7
:100600000AB1016101E00B04036170470148006811
:100610007047000010000020034800680349097873
:1006200008440149086070471000002018000020AD
:1006300010B50848006840F0100006490860032023
:1006400000F098F8002000F007F800F02BF80020E8
:1006500010BD00000020024070B504460E4800782E
:100660004FF47A71B1FBF0F00C490968B1FBF0F579
:10067000284600F0B2FD08B1012070BD102C07D251
:1006800000222146501E00F037F80548046001E0C2
:100690000120F2E70020F0E7180000201C000020F5
:1006A0001400002008B500BF1148806940F0010027
:1006B0000F4988610846806900F00100009000BF82
:1006C00000BF00BF0846C06940F08050C8610846BE
:1006D000C06900F08050009000BF00BF00BF054916
:1006E000486820F0E06040F00070486000BF08BD3E
:1006F00000100240000001402DE9F05F80460D46E9
:100700001646002701F02AFA074639462A4633469C
:1007100001F00700C0F1070ABAF1040F02D94FF047
:10072000040A01E0C0F1070AD14600F1040ABAF157
:10073000070F02D24FF0000A01E0A0F1030AD446ED
:100740004FF0010A0AFA09FAAAF1010A0AEA020AB2
:100750000AFA0CFA4FF0010B0BFA0CFBABF1010B90
:100760000BEA030B4AEA0B042146404601F0FEF96E
:10077000BDE8F09F00BF00F00702064B19684FF676
:10078000FF031940044B0B4343EA0221014B19605C
:1007900000BF70470CED00E00000FA0570B504469C
:1007A0000D460CB9012070BD5A48006800F00700E2
:1007B000A8420ED25748006820F007002843554948
:1007C00008600846006800F00700A84201D0012038
:1007D000E9E7207800F0020002281DD1207800F01F
:1007E0000400042805D14C48406840F4E0604A49C0
:1007F0004860207800F00800082805D14648406885
:1008000040F46050444948604348406820F0F0009C
:10081000A168084340494860207800F0010078B39F
:100820006068012806D13C48006800F4003090B9A7
:100830000120B8E76068022806D13748006800F058
:10084000007040B90120AEE73348006800F00200B4
:1008500008B90120A7E73048406820F0030061682C
:1008600008432D494860FFF7D1FE064609E0FFF72F
:10087000CDFE801B41F28831884202D9032092E7E5
:1008800007E02548406800F00C006168B0EB810F7C
:10089000EDD12048006800F00700A8420ED91D489D
:1008A000006820F0070028431A49086008460068DD
:1008B00000F00700A84201D0012074E7207800F082
:1008C0000400042807D11448406820F4E060E1687F
:1008D000084311494860207800F00800082808D132
:1008E0000D48406820F46050216940EAC1000A497F
:1008F000486000F03FF808494968C1F30311074A0E
:10090000515CC8400649086006480068FFF7A4FE2D
:10091000002048E70020024000100240B0620008BA
:100920001C000020140000200148006870470000EF
:100930001C00002000B5FFF7F7FF04494968C1F328
:100940000221034A515CC84000BD00000010024073
:10095000C062000800B5FFF7E7FF04494968C1F32A
:10096000C221034A515CC84000BD00000010024093
:10097000C0620008F0B585B00FF26C0C9CE8E01086
:1009800001A8A0E8E0101CA52D6800950021002218
:10099000002300240020194D696801F00C05F5B111
:1009A000042D02D0082D19D101E0154819E001AD40
:1009B000C1F38346AC5D01F4803555B10F4D6D68D0
:1009C000C5F340451DF805200D4D6543B5FBF2F319
:1009D00002E00C4D04FB05F3184602E000BF084896
:1009E00000BF00BF05B0F0BD0203040506070809FB
:1009F0000A0B0C0D0E0F1010010200000010024037
:100A000000127A0000093D00F8B504460CB9012037
:100A1000F8BD207800F00100002878D0F848406840
:100A200000F00C0004280CD0F548406800F00C00E1
:100A3000082811D1F248406800F48030B0F5803FBA
:100A40000AD1EF48006800F4003000285FD06068E9
:100A500000285CD10120DBE700BF6068B0F5803F73
:100A600006D1E748006840F48030E549086028E096
:100A7000606858B9E248006820F48030E0490860B6
:100A80000846006820F4802008601AE06068B0F52D
:100A9000A02F0BD1DA48006840F48020D8490860C4
:100AA0000846006840F4803008600AE0D4480068D6
:100AB00020F48030D24908600846006820F4802085
:100AC000086000BF606888B1FFF7A0FD054606E03A
:100AD000FFF79CFD401B642801D9032098E7C84814
:100AE000006800F400300028F2D010E0FFF78EFD1F
:100AF000054606E0FFF78AFD401B642801D9032064
:100B000086E7BF48006800F400300028F2D1207862
:100B100000F00200022857D1B948406800F00C00EC
:100B200050B1B748406800F00C00082818D1B4480C
:100B3000406800F4803098B9B148006800F00200C5
:100B400020B12069012801D0012061E7AC4800688C
:100B500020F0F800616940EAC100A949086033E06B
:100B60002069E8B10120A7490860FFF74FFD05465D
:100B700006E0FFF74BFD401B022801D9032047E7A1
:100B80009F48006800F002000028F2D09C480068EE
:100B900020F0F800616940EAC1009949086013E05B
:100BA000002098490860FFF731FD054606E0FFF791
:100BB0002DFD401B022801D9032029E79048006839
:100BC00000F002000028F2D1207800F00800082888
:100BD0002DD1A069B8B101208B490860FFF716FD3F
:100BE000054606E0FFF712FD401B022801D903204D
:100BF0000EE78348406A00F002000028F2D001208E
:100C000000F06CFC13E000207F490860FFF7FEFC59
:100C1000054606E0FFF7FAFC401B022801D9032035
:100C2000F6E67748406A00F002000028F2D120780A
:100C300000F00400042873D100277148C06900F057
:100C4000805070B900BF6E48C06940F080506C4958
:100C5000C8610846C06900F08050009000BF00BF26
:100C600001276A48006800F48070B0B967480068DE
:100C700040F4807065490860FFF7C8FC054606E04F
:100C8000FFF7C4FC401B642801D90320C0E65F487D
:100C9000006800F480700028F2D000BFE0680128EE
:100CA00006D15748006A40F001005549086227E024
:100CB000E06858B95248006A20F0010050490862C3
:100CC0000846006A20F00400086219E0E068052880
:100CD0000BD14B48006A40F00400494908620846BD
:100CE000006A40F0010008620AE04548006A20F00E
:100CF0000100434908620846006A20F004000862C7
:100D000000BFE068A0B1FFF781FC054609E0FFF7EE
:100D10007DFC401B41F28831884202D9032077E6EE
:100D200022E03748006A00F002000028EFD012E00D
:100D3000FFF76CFC054608E0FFF768FC401B41F23A
:100D40008831884201D9032062E62D48006A00F00C
:100D500002000028F0D1012F05D12948C06920F0F8
:100D600080502749C86100BFE069C8B32448406883
:100D700000F00C00082860D0E069022848D100206B
:100D800020490866FFF742FC054606E0FFF73EFCF7
:100D9000401B022801D903203AE61948006800F0F8
:100DA00000700028F2D1206AB0F5803F07D11448C6
:100DB000406820F40030A168084311494860D4E934
:100DC000080108430E49496821F4741108430C498D
:100DD000486001200B490866FFF718FC054607E04C
:100DE0003DE0FFF713FC401B022801D903200FE66A
:100DF0000348006800F000700028F2D02FE00000E7
:100E00000010024000004242800442420070004054
:100E1000002014490866FFF7F9FB054606E0FFF7D6
:100E2000F5FB401B022801D90320F1E50E480068BC
:100E300000F000700028F2D111E0E069012800D133
:100E4000E6E50948466806F48031206A814204D10B
:100E500006F47011606A814201D00120D8E50020BB
:100E6000D6E50000000042420010024010B50446E2
:100E70000CB9012010BD606A38B96068B0F5827F96
:100E800000D105E00021E16102E000212161616102
:100E90000021A16294F8510028B9002084F8500084
:100EA000204600F043F8022084F8510020680068D2
:100EB00020F0400021680860A08800F48270218939
:100EC00001F404410843A18901F400610843217C35
:100ED00001F002010843217D01F001010843218B4B
:100EE00001F400710843217F01F0380108432021FB
:100EF000095D01F080010843218D01F40051084390
:100F0000216808600421A06901EA10402168486056
:100F10002068C06920F400602168C8610020606515
:100F2000012084F851000020A4E7000010B586B02D
:100F3000044600200290039004900590194920680F
:100F400088422DD100BF1848806940F4805016496E
:100F500088610846806900F48050019000BF00BF9E
:100F600000BF0846806940F0040088610846806937
:100F700000F00400019000BF00BFA02002900220FA
:100F800003900320059002A90848FFF7A9F9402023
:100F9000029000200390049002A90448FFF7A0F9F2
:100FA00006B010BD003001400010024000080140B2
:100FB0002DE9FF5F0446884691461D460E9E01209E
:100FC00002900020019000BF94F85000012803D146
:100FD000022004B0BDE8F09F012084F8500000BF5B
:100FE000FFF714FB074694F851B060680390AA46D7
:100FF000BBF1010F0BD00398B0F5827F04D1A0683C
:1010000010B9BBF1040F02D002200190DBE0B8F16F
:10101000000F03D0B9F1000F00D015B901200190E5
:10102000D1E094F85100042802D0052084F8510042
:1010300000206065C4F83890E587A587C4F8308043
:10104000E586A586206460642068006800F04000A2
:10105000402805D02068006840F040002168086002
:10106000E068B0F5006F4AD1606810B1BAF1010FC5
:1010700009D1206B00882168C860206B801C206328
:10108000E08E401EE08633E02068806800F00200B9
:10109000022810D1E08E70B1029801280BD1206B8C
:1010A00000882168C860206B801C2063E08E401E91
:1010B000E086002002902068806800F0010068B19E
:1010C000E08F58B12068C068A16B0880A06B801CBD
:1010D000A063E08F401EE08701200290FFF796FAA0
:1010E000C01BB04204D3701C10B1032001906AE011
:1010F000E08E0028C8D1E08F0028C5D14AE06068A2
:1011000010B1BAF1010F09D1206B00782168087382
:10111000206B401C2063E08E401EE08634E0206897
:10112000806800F00200022810D1E08E70B10298B1
:1011300001280BD1206B007821680873206B401CBC
:101140002063E08E401EE0860020029020688068C8
:1011500000F0010068B1E08F58B12068C068A16B51
:101160000870A06B401CA063E08F401EE087012048
:101170000290FFF74BFAC01BB04201D3701C00B9BC
:1011800016B9032001901EE0E08E0028C7D1E08F41
:101190000028C4D13A463146204600F0B3F920B1C8
:1011A00001200190202060650DE0A06850B900BFCB
:1011B000002000902068C06800902068806800903F
:1011C00000BF00BF00BF012084F8510000BF002015
:1011D00084F8500000BF0198FBE670B50446254630
:1011E000681EB0F1807F01D301200FE0681E4FF030
:1011F000E02148610F214FF0FF3000F0B7FC0020E4
:101200004FF0E021886107200861002070BD10B513
:1012100004460CB9012010BDA06900B100E000BF78
:1012200094F83D0028B9002084F83C00204600F0E6
:1012300027F8242084F83D002068C06820F400507E
:101240002168C860204600F017FA2068006920F481
:101250009040216808612068406920F02A002168D8
:1012600048612068C06840F400502168C8600020D0
:101270002064202084F83D0084F83E000020CAE766
:1012800010B586B0044600200290039004900590AB
:101290001A49206888422ED100BF1948806940F45D
:1012A0008040174988610846806900F480400190B9
:1012B00000BF00BF00BF0846806940F0040088619D
:1012C0000846806900F00400019000BF00BF481587
:1012D0000290022003900320059002A90948FEF71E
:1012E000FFFF4FF48060029000200390049002A959
:1012F0000448FEF7F5FF06B010BD000000380140BD
:1013000000100240000801402DE9F84F04460E4647
:10131000174699464FF0000A94F83D0020285AD10C
:1013200006B117B90120BDE8F88F00BF94F83C0062
:10133000012801D10220F6E7012084F83C0000BF1B
:1013400000202064212084F83D00FFF75FF98246E9
:10135000A784E784A068B0F5805F04D1206910B944
:101360000025B04602E035464FF0000800BF0020DF
:1013700084F83C0000BF1BE0534600228021204639
:10138000CDF8009000F0F6F908B10320CBE745B99D
:10139000B8F80000C0F308002168486008F10208AE
:1013A00003E02878216848606D1CE08C401EE084D2
:1013B000E08C0028E0D15346002240212046CDF8A1
:1013C000009000F0D7F908B10320ACE7202084F8A2
:1013D0003D000020A7E70220A5E700BFFEE70000D0
:1013E00000B585B00020019002900390049000BFEA
:1013F0001648806940F020001449886108468069D9
:1014000000F02000009000BF00BF00BF08468069C8
:1014100040F0040088610846806900F004000090F4
:1014200000BF00BF012204210948FFF7E9F80420AA
:10143000019001200290002003900320049001A954
:101440000348FEF74DFF05B000BD0000001002404C
:101450000008014010B50E480E4908604FF4827034
:10146000486000210B488160C160016141614FF417
:10147000007181610821C1610021016241628162C4
:101480000A21C162FFF7F2FC08B1FEF711FF10BD9F
:10149000003001402400002010B50B480B490860C3
:1014A0004FF4E1304860002108488160C16001616B
:1014B0000C21416100218161C161FFF7A8FE08B1E3
:1014C000FEF7F6FE10BD0000003801407C00002051
:1014D00000BFFEE700BFFEE77047000008B50849FF
:1014E0000968C9084FF47A72B1FBF2F141430091E7
:1014F00000BF00BF00994A1E00920029F9D108BD23
:101500001C000020F8B504460D4616462B46002266
:1015100080212046009600F009F828B1606D40F067
:10152000200060650320F8BD0020FCE72DE9F84F9E
:1015300004460D4690461E46DDF82890FFF766F8F3
:10154000A0EB0900371AFFF761F882462C480068C3
:10155000C0F3CB307843009045E0701C002842D0A7
:10156000FFF754F8A0EB0A00B84200D2A7BB2068EE
:10157000406820F0E000216848606068B0F5827F34
:101580000DD1A068B0F5004F03D0A068B0F5806F12
:1015900005D12068006820F0400021680860A06A3A
:1015A000B0F5005F0DD100BF2068006820F4005046
:1015B000216808602068006840F4005021680860D5
:1015C00000BF012084F8510000BF002084F85000C3
:1015D00000BF0320BDE8F88FFFE7009800B900279F
:1015E0000098401E0090206880682840A84201D1E1
:1015F000012000E000204045AFD10020EAE70000D4
:101600001C000020704710B5FFF706F810BD00B5AC
:101610008FB0282105A8FEF7AEFD14216846FEF71D
:10162000AAFD0120059000040690002007900120EB
:10163000099002200C90C1030D914FF4E0110E911E
:1016400005A8FFF7E1F908B1FEF732FE0F20009080
:1016500002200190002002904FF48060039000204F
:10166000049002216846FFF799F808B1FEF720FEC2
:101670000FB000BD7047000070B5044621680969CD
:1016800021F44051E2681143226811612269A16886
:101690001143626941EA02052168C96841F20C629E
:1016A000914329432268D1602168496921F440713E
:1016B000A2691143226851612D4A2168914202D1E9
:1016C000FFF748F901E0FFF735F900EBC00101EB46
:1016D000001162689200B1FBF2F100EBC00202EB74
:1016E000001263689B00B2FBF3F26423B2FBF3F2D7
:1016F00002EBC20303EB0212A1EB8201322202EBE6
:1017000001116422B1FBF2F101F0F00100EBC00223
:1017100002EB001263689B00B2FBF3F26423B2FB9E
:10172000F3F201EB021200EBC00101EB0011636860
:101730009B00B1FBF3F100EBC00303EB0013666801
:10174000B600B3FBF6F36426B3FBF6F303EBC30674
:1017500006EB0313A1EB8301322303EB0111642396
:10176000B1FBF3F101F00F0111442268916070BDEB
:10177000003801402DE9F04104460D4617469846D1
:10178000069E21E0701CF8B12EB1FEF73FFFA0EBE2
:101790000800B04218D92068C06820F4D0702168D1
:1017A000C8602068406920F001002168486120205D
:1017B00084F83D0084F83E0000BF002084F83C001F
:1017C00000BF0320BDE8F081206800682840A842DF
:1017D00001D1012000E00020B842D3D00020F1E781
:1017E00000BFFEE710B50446240300F02BF900F01B
:1017F0001FF9002204210C48FEF702FF202000F010
:1018000003F9C4F3074000F0FFF8C4F3072000F029
:10181000FBF8E0B200F0F8F8012204210248FEF7DC
:10182000EFFE00F005F910BD0008014010B50022E0
:1018300004211148FEF7E4FEFF2000F0E5F8012244
:1018400004210D48FEF7DCFE00F078F80B49088013
:1018500000F046F80A4908600A4800F0ADF8074869
:10186000008800F46F40B0F56F4F02D04FF0FF30AA
:1018700010BD0020FCE7000000080140000000202F
:1018800004000020080000202DE9F04106460C4627
:101890001746002204211148FEF7B2FE032000F093
:1018A000B3F8C4F3074000F0AFF8C4F3072000F02A
:1018B000ABF8E0B200F0A8F8002505E0FF2000F04A
:1018C000A3F87055681C85B2BD42F7DB01220421E4
:1018D0000248FEF795FEBDE8F081000000080140D7
:1018E00038B5002400200090002204211248FEF7A1
:1018F00087FE5A2000F088F8002000F085F80020CC
:1019000000F082F8842000F07FF8002000F07CF8DE
:1019100000BF05E0FF2000F077F80DF80400641C1C
:10192000042CF7D3012204210348FEF769FE009836
:10193000401CC00838BD00000008014010B500245C
:10194000002204210F48FEF75BFE902000F05CF8B7
:10195000002000F059F8002000F056F8002000F0B8
:1019600053F8FF2000F050F844EA0024FF2000F074
:101970004BF80443012204210248FEF741FE2046B1
:1019800010BD00000008014010B500240022042111
:101990000848FEF735FE052000F036F8FF2000F07D
:1019A00033F80446012204210248FEF729FE2046AE
:1019B00010BD00000008014070B50546002400225B
:1019C00004211048FEF71CFE4B2000F01DF80020FB
:1019D00000F01AF8002000F017F8002000F014F8CA
:1019E000002000F011F800BF04E0FF2000F00CF828
:1019F0002855641C082CF8DB012204210148FEF75D
:101A0000FFFD70BD0008014001B582B000200190CB
:101A10000A20012301AA02A900900448FFF7C8FA8E
:101A200008B1FF2001909DF804000EBD24000020A5
:101A300010B500BFFFF7A8FF00F001000028F9D1A2
:101A400010BD000010B5002204210648FEF7D8FDA5
:101A50000620FFF7D9FF012204210248FEF7D0FD3E
:101A600010BD0000000801402DE9F04107460E4678
:101A70001446F0B2C0F58075AC4200DC254612E099
:101A80002A463146384600F013F8AC4200D10BE04C
:101A90002F442E44601B84B2B4F5807F02DD4FF4E6
:101AA000807500E02546EBE700BFBDE8F08100004F
:101AB0002DE9F04106460C461746FFF7C3FF00220A
:101AC00004211148FEF79CFD0220FFF79DFFC4F39F
:101AD0000740FFF799FFC4F30720FFF795FFE0B237
:101AE000FFF792FF002504E0705DFFF78DFF681C93
:101AF00085B2BD42F8DB012204210348FEF780FDD8
:101B0000FFF796FFBDE8F081000801400FB4054BD8
:101B100010B503A9044A029800F04CF810BC5DF817
:101B200014FB0000192000082000002001464FF09F
:101B300033324FF0553000EA5100091A01EA020031
:101B400002EA9103C11801EB111000F00F3101EB13
:101B5000112101EB114101F03F007047024800687C
:101B6000C0F30220704700000CED00E010B5002823
:101B700004DB0A07130E054A135406E00A07140E85
:101B8000034A00F00F031B1FD45410BD00E400E013
:101B900018ED00E002E008C8121F08C1002AFAD1BF
:101BA00070477047002001E001C1121F002AFBD1DD
:101BB000704700002DE9FF4F8DB00F460546002607
:101BC00006E025280BD0DDE90F1290476D1C761C2E
:101BD00028780028F5D111B03046BDE8F08F0024F8
:101BE000A246A1460122EC4900E0044315F8013F5A
:101BF000203B02FA03F00842F7D128782A2810D0B7
:101C00006FF02F022878A0F13001092914D80AEBCF
:101C10008A0102EB410144F0020400EB010A6D1C51
:101C2000F0E701CF5FEA000A03D544F40054CAF19B
:101C3000000A44F002046D1C28782E2817D115F8EC
:101C4000010F44F004042A280ED06FF02F022878E8
:101C5000A0F1300109290AD809EB890102EB410101
:101C600000EB01096D1CF2E757F8049B6D1C287806
:101C70006C280FD006DC4C2817D068280DD06A28B5
:101C800014D104E0742810D07A280FD10DE044F468
:101C900000140AE044F4801401E044F4401469782C
:101CA000814202D104F580146D1C6D1C2A786E2AC5
:101CB0001FD00CDC632A31D004DC002A8BD0582AD8
:101CC00011D1A3E0642A68D0692A0CD165E0732A97
:101CD0002ED004DC6F2A73D0702A04D19BE0752AC1
:101CE0006FD0782A6ED01046DDE90F129047761C2F
:101CF00050E1C4F30250022806D0032809D004287A
:101D000001CF09D0066045E101CFF117C0E90061BC
:101D100040E101CF06803DE106703BE117F8040B7E
:101D20008DF8000000208DF80100EB46012003E053
:101D300057F804BB4FF0FF3061074FF0000102D4A9
:101D40000DE008F10101884649450FDA8045F8DBCE
:101D50001BF808100029F4D108E008F101018846B9
:101D60008142FADB1BF808100029F6D1DDE90F23C8
:101D7000AAEB08008146214600F036F9304400EB1A
:101D8000080604E0DDE90F121BF8010B9047B8F1DB
:101D90000108F7D221464846F7E00A21C4F302536E
:101DA0004FF0000B0891022B04D001CFC117032B79
:101DB00009D00AE0FF1D27F00707F7E8020108E055
:101DC00032E01FE020E000B2C117042B01D140B285
:101DD000C117031E71F1000307DA4FF0000CD0EBBE
:101DE0000C006CEB01012D2302E0230504D52B230D
:101DF0008DF82430012303E0E30701D02023F7E727
:101E0000984658E00A2110E010210EE010204FF013
:101E1000000B08900CE010214FF0000B44F004047C
:101E20004FF00809089103E008214FF0000B0891DA
:101E3000C4F30253022B04D001CF0021032B06D0A0
:101E400006E0FF1D27F00707F7E8020103E080B274
:101E5000042B00D1C0B24FF0000823072BD5702A05
:101E600007D0DDF820C08CF0100C5CEA0B0C05D01C
:101E70000EE040238DF82430012308E050EA0103EE
:101E800006D030238DF824308DF825200223984683
:101E9000DDF820C08CF0080C5CEA0B0C0BD150EA8A
:101EA000010301D1630706D530238DF824304FF0AC
:101EB0000108A9F10109582A04D038A20B9208AAF6
:101EC0000A920BE03AA2F9E75B46089AFEF79BF903
:101ED0000B9B9B5C0A9A521E0A92137050EA0102F5
:101EE000F2D10A98ADEB000000F1200B600702D59B
:101EF00024F4803401E04FF00109D94502DDA9EB5B
:101F00000B0000E0002000EB0B0141440890AAEB1D
:101F1000010AE00306D4DDE90F232146504600F014
:101F200063F806444FF0000908E009A911F8090018
:101F3000DDE90F12904709F10109761CC145F4DB78
:101F4000E0030CD5DDE90F232146504600F04CF8A4
:101F5000064404E0DDE90F1230209047761C089912
:101F6000481E08900029F5DC08E00A980A990078D4
:101F7000491C0A91DDE90F129047761CBBF1000164
:101F8000ABF1010BF1DC21465046DDE90F2300F0F7
:101F900019F806446D1C1BE6092801003031323364
:101FA0003435363738396162636465660000000095
:101FB000303132333435363738394142434445467F
:101FC000000000002DE9F041044600251E4617469A
:101FD000880404D405E039462020B0476D1C641EF7
:101FE000F9D52846BDE8F0812DE9F04104460025E9
:101FF0001E469046C80301D5302700E020278804FC
:1020000004D505E041463846B0476D1C641EF9D53D
:102010002846BDE8F081000013B50C464FF0FF33B1
:10202000012269460248FFF76FF900981CBD0000C5
:102030007C0000200246B2FBF1F001FB1020101AD8
:10204000704770B504460D466119481E2946FFF7D2
:10205000F1FF70BDF8B504460E4670E035E0E16D65
:10206000E06D401CE065206E401E20664A09606EEF
:1020700050F8220001F01F0301229A40104018BBC3
:10208000606D0844A26E126AB0FBF2F302FB13000B
:10209000306005E0E06D401CE065206E401E20666B
:1020A000D4E9160282420DD0E06D4009626E52F80A
:1020B00020005C22125D02F01F0301229A401040B2
:1020C0000028E7D10020F8BD00BFD4E91601814205
:1020D000C5D1206E68B91AA00090616DE06D4318FB
:1020E0004FF40C7217A11CA0FFF710FD6FF01B003E
:1020F000E9E7D4E915100844A16E096AB0FBF1F2D2
:1021000001FB12006065A26E216ED26AD00003F05E
:102110000AFDA0650021E165A26ED16A606EFEF73E
:102120002AF8012322461649204603F00BFA0546F9
:1021300025B1204600F02AF82846C4E700BF8DE705
:10214000000000002E2E5C6C6974746C6566735C14
:102150006C66732E6300000025733A25643A65723D
:10216000726F723A204E6F206D6F726520667265D5
:102170006520737061636520257525730A00000072
:102180009F210008816E0A6A0266704710B50446F6
:102190000021A165E1652046FFF7F4FF10BD70B591
:1021A00002460C461146486D201A8D6E2D6A284451
:1021B0008D6E2D6AB0FBF5F605FB1603886D98420F
:1021C0000CD95D09486E50F8250003F01F06012563
:1021D000B54028435E094D6E45F82600002070BDCD
:1021E0002DE9FF4F87B081461F46DDF850A0DDF88E
:1021F0005C80DDF858B00026002427E0A8EB04003E
:10220000082103F090FC064605A9159820443B1BC5
:10221000CDE900A0CDE902164846DDE9081200F03C
:10222000C6F805461DB128460BB0BDE8F08F0BEB94
:102230000401324605A8FDF7BAFF05462DB1002D71
:1022400001DA0120F0E70220EEE734444445D5D31B
:102250000020E9E770B504460D46A06E2946C26825
:1022600090470646304670BD2DE9FF4705460C46AF
:10227000174698462068401C00283FD02068801CE4
:1022800000283BD0AA6E9169A068FFF7DAFE0646E7
:102290000096E368D4E90012A86ED0F808C0E047C1
:1022A0008146B9F1000F03D0484604B0BDE8F0877D
:1022B000B8F1000F1DD03946284600F05CF9D4E98A
:1022C0000012E0683346CDE90206CDE900123A4635
:1022D00000212846FFF784FF8246BAF1000F01DA99
:1022E0005046E2E7BAF1000F02D06FF05300DCE78E
:1022F00000BF2146284600F042F900BF0020D4E785
:102300002DE9FF5F06460C46DDE90E95DDF84480B9
:10231000DDF840A046E02068484538D16068A84212
:1023200035D86068B16E896A0844A8422FD9B06E6A
:10233000806A6268AA1A811A404603F0F4FB0746D5
:102340006268AA1AE16888183A465146FDF7FAFE13
:10235000BA443D44A8EB07086268A91AA06803F0D4
:10236000DBFBA060A068B16E896A88420ED121466D
:102370003046DDE90223FFF777FF8346BBF1000F0C
:1023800003D0584604B0BDE8F09F00BF0AE0C4F88F
:102390000090B06E81692846FFF74CFE6060002017
:1023A000A06000BFB8F1000FB5D10020EAE72DE929
:1023B000FF4F83B0064688461446DDE910A5DDF8D8
:1023C0004C90DDF848B0B06E006A504505D905EB79
:1023D0000900B16EC969884204D96FF0530007B093
:1023E000BDE8F08FA6E04F46B8F1000F2AD0D8F82C
:1023F0000000504526D1D8E901010844A84221D95E
:10240000D8F80400A84216D8D8E90120AA1A811ADF
:10241000384603F088FB0746D8F80420AA1AD8F8F3
:102420000C0081183A465846FDF78CFEBB443D44EB
:10243000A9EB07097EE0D8F80400411B384603F0F9
:1024400072FB07462068504522D1D4E901010844B7
:10245000A8421DD96068A84214D8D4E90120AA1A5C
:10246000811A384603F05FFB07466268AA1AE068E3
:1024700081183A465846FDF765FEBB443D44A9EB3A
:10248000070957E06068411B384603F04CFB0746DC
:102490000698814522D3B06E4069B5FBF0F100FB90
:1024A0001150D8B9B06E4069484517D8B06E41692F
:1024B0003846FFF7BFFD07460097B06E5B462A46D9
:1024C0005146D0F804C0E0470190019808B1019846
:1024D00085E7BB443D44A9EB07092BE0C4F800A005
:1024E000B06E41692846FFF7A5FD6060B26E516984
:1024F000069AA818FFF7A5FD0090B06EC169009874
:1025000003F011FB6168401A0190B06E816A019876
:1025100003F009FBA060A0680090E368D4E9001212
:10252000B06ED0F804C0E0470290029808B102985B
:1025300055E700BFB9F1000F7FF455AF00204EE71B
:102540002DE9F04104460F46154698462946204697
:1025500000F011F843462A4639462046FFF784FE2C
:10256000064616B13046BDE8F081A06E0169884785
:1025700006463046F7E74FF0FF320A60704770B505
:1025800005460C46AA6E916AFF22E068FDF7ECFD55
:102590004FF0FF30206070BD70B50B461C46002127
:1025A00012E0655C454005F00F05094E56F82550D0
:1025B00085EA1010655C80EA251505F00F0556F8D0
:1025C000255085EA1010491C9142EAD370BD0000E5
:1025D0006864000810B5044661422140481C03F0BD
:1025E000CCFA401E10BD00002DE9FF4F89B01F46F8
:1025F000DDE916B8DDF86090BBE008A90998FFF79F
:1026000029FD04461CB120460DB0BDE8F08FDDE980
:102610000810FFF71FFE04462CB104F1540000B966
:1026200099E02046F0E7BBF1000F06D10898C8F802
:1026300000000020C9F80000E6E7ABF101000790B8
:1026400007A9099800F012F982460798401C0790E4
:102650000998806EC0690799884232D0002525E02C
:10266000012005A9CDE90075CDE902100798431BAB
:1026700000210B9A0998FFF79AFE04460CB12046F8
:10268000C2E7012005A9089A0346CDE90025CDE956
:10269000021009A807C8FFF733FE04462CB104F165
:1026A000540000B957E02046AEE76D1C07988542FC
:1026B000D6D30898C8F800000798C9F80000002091
:1026C000A2E70AF1010A5046FFF784FF461C06976D
:1026D000002536E0069803F057FD0690042106AA6F
:1026E000A800089BCDE90030CDE90221012309A80B
:1026F00007C8FFF705FE0446069802F0C3FC0690E3
:102700002CB104F1540000B925E020467CE7701E8E
:10271000A84215D0042106AAA800069BCDE90030E6
:10272000CDE902210B4600210B9A0998FFF73FFEE5
:102730000446069802F0A6FC06900CB1204663E71A
:102740006D1CB542C6D30898C8F80000B000C9F89F
:102750000000002058E707A0009040F6661206A18E
:102760000AA0089BFFF7D2F9DDE90901FFF703FF93
:1027700000BF42E7000000002E2E5C6C6974746C90
:102780006566735C6C66732E6300000025733A25E2
:10279000643A64656275673A2042616420626C6FD6
:1027A000636B206174203078257825730A0000005F
:1027B0002DE9FF4F85B08346DDE91478129E46B9B6
:1027C0004FF0FF3038600020C8F8000009B0BDE8C5
:1027D000F08F701E049004A9584600F047F8044694
:1027E00013A9584600F042F805462BE02046FFF7B3
:1027F000F1FE611B0390481C03F0BFF9401E0290DC
:10280000039903F090F98146042108AA4FEA890050
:10281000089BCDE90030CDE902210B465846DDE9A1
:102820000612FFF7C4FD8246089802F02BFC0890C0
:10283000BAF1000F01D05046C8E7012000FA09F0B4
:10284000241A00BFAC42D1D8089838601398C8F851
:1028500000000020BAE710B50446206802F012FC20
:102860002060606802F00EFC606010BD2DE9F04150
:1028700080460D462E68D8F86800C069A0F10807A8
:10288000B6FBF7F414B90020BDE8F081601E03F038
:10289000B6F9801C042101FB1060B0FBF7F4204660
:1028A00003F0ADF907FB1461042202FB101028604D
:1028B0002046E9E710B50446206803F065FC206077
:1028C000606803F061FC606010BD2DE9FF4F87B0C8
:1028D00083461F46DDE9149AB9F1000F03D10020A9
:1028E0000BB0BDE8F08FA9F10100069006A958468B
:1028F000FFF7BCFF05463CE039461698D047064630
:102900000EB13046ECE70DB90020E9E705F0010013
:10291000C0F10204A00004A90022A300CDE90072C6
:10292000CDE902105846DDE90812FFF740FD0646E2
:10293000049802F0A7FB0490059802F0A3FB059011
:102940000EB13046CCE74FF000080AE004A850F87A
:1029500028101698D04706460EB13046C0E708F159
:102960000108601E4045F1DC04A951F820702D1BC0
:1029700000BFC1E70146886E006B10B9C86800BF90
:1029800000BF886E406B10B9C86900BF00BF886E79
:10299000806B10B9486E00BF00BF0020704770B553
:1029A00005460C462046FEF71DFF002070BD2DE9B0
:1029B000F04104460D4616461F46DDF818801FFA02
:1029C00088F2E06900FB05613846FFF74DF800200A
:1029D000BDE8F0812DE9F04104460D4616461F463C
:1029E000DDF818801FFA88F2E06900FB05613846BF
:1029F000FEF74AFF0020BDE8F08101460020704745
:102A00002DE9FF4705460C46002714E007F10109B0
:102A100009EBD9704010A9EB400004EB8001284677
:102A2000FFF718FB8046B8F1000F03D0404604B012
:102A3000BDE8F0877F1C022FE8DB0020A0600422A5
:102A400004F1080000232168CDE90013CDE902025A
:102A500013462A4600212846FFF7A9FC0646A0682F
:102A600002F010FBA06026B106F1540008B1304618
:102A7000DDE7A86E406A002808DDAA6E526A521C83
:102A800042F00101A068FFF7DCFAA0600420E060DA
:102A9000401F20610020A082401EA0610146E1612C
:102AA0000020A075E07500BFC1E700002DE9F047E8
:102AB000A0B006460C4617469846B56A2BE005F1CD
:102AC0000800844226D0214603F05EF810BBA879A6
:102AD00001281FD1286B00F48010D8B1E86AB16ECC
:102AE000896A884216D92946304601F0B1FD8246EE
:102AF000BAF1000F03D0504620B0BDE8F087294658
:102B0000304601F0DBFC8246BAF1000F01D050469E
:102B1000F2E700BF2D68002DD1D12022214618A850
:102B2000FDF710FBA94600BF36E057F8350003F06B
:102B3000D4FA40F20141884203D1A08A401CA0820D
:102B400029E057F8350003F0C8FA40F2FF41884207
:102B500005D1A08A401EA0824FF001091BE057F862
:102B6000350003F0B5FAB0F5C06F14D107EBC5001E
:102B700040680068A06107EBC50040684168E161FA
:102B800057F8350003F074FA00F00100E07504F125
:102B9000180003F00EF86D1C4545C6DBB9F1000FB7
:102BA00025D0A08A18BB10AA2146304602F052FC5C
:102BB000054645B1A81C30B1202218A92046FDF7D2
:102BC000C1FA284698E7A81C80B19DF8570068B163
:102BD000224610A9304600F071FD054635B120228D
:102BE00018A92046FDF7AEFA284685E700BFA07D6C
:102BF00010B9A08AFF287CDB1822A8490DA8FDF790
:102C0000A1FA20680D90E0680E9020690F90E068AE
:102C10001190B06E806C10B1B06E806C01E0B06E3F
:102C2000C0690838129004F1180002F0DDFF0DA809
:102C3000CDE9166016A89A4900220592CDE9062131
:102C4000CDE9018203920097049208902146304614
:102C5000D4E9032301F0DCFA054604F1180002F080
:102C6000A8FF65B105F11C0008B1383000B972E069
:102C7000202218A92046FDF765FA28463CE70020E7
:102C80000A900B900C9006F130010AA802F0A0FE09
:102C900006F13C010AA802F09BFE06F148010AA8D1
:102CA00002F096FE0A986FF309000A900AA802F053
:102CB00073FE30BB0AAA2146304601F0F5F80546FE
:102CC00035B1202218A92046FDF73CFA284613E723
:102CD0000AA802F06EFE0AAB724A0DA9304600F057
:102CE00002F905466DB105F11C0008B1383008B98C
:102CF00031E02FE0202218A92046FDF723FA2846CC
:102D0000FAE60DA9304600F053F9054665B105F124
:102D10001C0008B1383000B91DE0202218A9204657
:102D2000FDF710FA2846E7E60E98E0600F9820615C
:102D3000D6E90D12306BC6E91012F0630020139033
:102D40001490594A159007CA13AB07C3C6E913126A
:102D5000B0641AE000BF06F110013046FFF70BFC2B
:102D6000A08A002143463A46CDE90041029021461F
:102D7000304600F033FA054635B1202218A9204626
:102D8000FDF7E0F92846B7E600BFB56A5CE005F15B
:102D90000800A04257D018A902F0F6FEB0BB2022CE
:102DA000214605F10800FDF7CDF94FF0000A48E093
:102DB00057F83A0003F091F940F2FF4188420CD1F4
:102DC00057F83A0003F063F9A988884205D14FF01B
:102DD000FF30A8600146E96031E057F83A0003F09F
:102DE0007CF940F2FF41884211D157F83A0003F0D4
:102DF0004EF9A98888420ADAA888401EA880A879D6
:102E000002281CD1A86A401EA86218E01BE057F8EF
:102E10003A0003F062F940F2014188420FD157F8BD
:102E20003A0003F034F9A988884208DCA888401CDD
:102E3000A880A879022802D1A86A401CA8620AF1D9
:102E4000010AC245B4DB2D68002DA0D1B56A20E08F
:102E500018A905F1080002F097FEC8B911E0A98889
:102E6000A88B081AA88005F1200205F10801304658
:102E700000F056FC8246BAF1000F01D050463BE606
:102E800000BFA988A88B814202DBE87F0028E6D139
:102E90002D68002DDCD100202EE600001063000814
:102EA000AD2E00080CFCFF7F046300082DE9F04103
:102EB00004460D461646274633462A46D7E9000102
:102EC00000F011F8BDE8F0812DE9F04104460D460F
:102ED00017462646284603F0CFF83168084430608C
:102EE0000020BDE8F0812DE9F04F87B082460D4605
:102EF00016469946304603F0BFF8074668683844DE
:102F00006969884204D96FF01B0007B0BDE8F08FF3
:102F100026F00041AA6881EA020003F02FF906902A
:102F2000042306AA2946504600F032F904460CB1A3
:102F30002046EAE706F0004048B93B1F4A462946CA
:102F4000504600F025F9044664B32046DDE7CB4641
:102F50004FF0000822E0012205ABDBF804004044FA
:102F6000DBF80010CDE90232CDE90010381FA0EBEC
:102F70000803524600215046FFF719FA04460CB1E7
:102F80002046C2E7012305AA2946504600F000F971
:102F900004460CB12046B8E708F10108381F404547
:102FA000D9D800BF26F00040A8600020ADE700009F
:102FB0002DE9F04F8BB007460C46BA6E91696268F6
:102FC00002F10800FFF73DF8054600200A9009903D
:102FD0007BE06068001D08900899681A40F2FE3195
:102FE00002F0A1FD089900EB010BAB4505D2A5F15C
:102FF0000801584602F097FD83464FF0FF300790D6
:10300000042107AA20680B46CDE901B20391009084
:103010003A4600213846FFF7CAF98146B9F1000F58
:1030200006D009F1540018B148460BB0BDE8F08F46
:10303000079802F017F8C043C00F0690069800F5F5
:10304000A060524941EA00500899ABEB01010843E6
:103050000790A168079A81EA020003F08FF80490B4
:10306000042204A9E068FFF797FAE060E06803F043
:103070008BF80590082204ABD4E900018DE80B0021
:10308000039200233A4607F110013846FFF738F95A
:103090008146B9F1000F01D04846C6E70A9820B929
:1030A0006068001D0A90E0680990079803F005F831
:1030B000001D616808446060DDE9060181EAC070B6
:1030C000A0604FF0FF30E06000BF6068A84280D38E
:1030D00000233A4607F110013846FFF731FA8246DD
:1030E000BAF1000F01D050469FE72669DDF828802D
:1030F00047E04FF0FF3BB14626E00A98814505D1F5
:103100000998834502D06FF053008EE7012108AA89
:103110002068CDE901920391009008F10400A0EB32
:1031200009033A4600213846FFF741F98246BAF1D1
:10313000000F01D0504678E7012208A95846FFF752
:103140002BFA834609F1010908F104008145D4D323
:10315000BBF1000F02D06FF0530066E7A5EB08004B
:1031600040F2FE3102F0DFFC00EB0806AE4205D271
:10317000A5F10801304602F0D6FC064606F1040827
:1031800000BFAE42B5D300204FE7000000FC0F00A7
:103190002DE9FF4106460C4617461D46D4E90001BD
:1031A000002332468DE88300039506F11001304676
:1031B000FFF7A6F88046B8F1000F03D0404604B0F0
:1031C000BDE8F0812A463946E068FFF7E5F9E0609E
:1031D0006068284460600020F1E700002DE9F04FAE
:1031E0009BB005460C4692469B46DDE92578206853
:1031F000199060681A900020189017905EE00020E7
:10320000169016A9EF4A784200B2CDE90580CDE9C3
:1032100007210020EC49431E0246CDE900ABCDE971
:10322000030702912846249900F0F2FF06461EB1DA
:1032300030461BB0BDE8F08FA8EB0700FF2817DA77
:10324000AA6E9169926C12B1AA6E926C01E0AA6E9C
:10325000D2695008FEF7F5FE1590A96EC969A1F173
:103260002400159902F05FFC1699884200D329E0EA
:10327000A8EB070000EBD071C1F34F0907EB090081
:1032800080B224995B465246CDE90108009121465F
:10329000284600F07DFF06465EB106F11C0030B9FD
:1032A000A86EC06924381699884200D30AE03046D7
:1032B000BFE707EB09001FFA80F800BFA8EB070083
:1032C00001289CDC00BFA068401CA060A86E406A7A
:1032D000002843DDA168A86E406A401C40F0010050
:1032E000B1FBF0F200FB1210002837D1B74903C937
:1032F000CDE9150115A9204602F046FC00282AD187
:10330000284602F00DF98146B9F1000F01DA48466E
:103310008FE7A86E006AB9EB500F1BD2ACA00090EB
:103320004FF4CD62ABA1B0A0A368FEF7EFFB2498E9
:103330005B46524621468DE88101284600F028FF71
:10334000064626B106F11C0008B1304671E706B901
:10335000B84600BF02E001201790D9E012E1182220
:103360009A4908310CA8FCF7EDFE60680C90A86E35
:10337000806C10B1A86E806C01E0A86EC06908383E
:10338000119028466168FEF765FF06462EB106F1EA
:10339000540000B9BCE030464BE7A06802F0F4FEF0
:1033A000A060042304F108020CA92846FFF7F0FEF0
:1033B0000646A06801F066FEA0602EB106F154003A
:1033C00000B9A5E0304634E70CA8CDE9155015A9A1
:1033D000914A784200B2CDE90580CDE9072100206D
:1033E0007949431E0246CDE900ABCDE903070291BE
:1033F0002846249900F00CFF06462EB106F1540031
:1034000000B985E0304614E704F1180002F0DCFB57
:10341000E8B904F1180002F0E7FBE07D00F5C060B8
:103420007E4941EA005040F0080204F118030CA95B
:103430002846FFF758FD064604F1180002F0B9FBD4
:103440002EB106F1540000B962E03046F1E60020EA
:1034500009900A900B90189848B905F13C0109A809
:1034600002F0B6FA05F1300109A802F0B1FA05F14F
:10347000480109A802F0ACFA09986FF30900099015
:1034800009AA2146284600F00FFD06460EB1304637
:10349000CFE609A802F080FA80B909A802F089FAFB
:1034A00009AB5F4A0CA92846FFF71DFD06462EB161
:1034B00006F1540000B92BE03046BAE60CA92846C4
:1034C000FFF776FD06462EB106F1540000B91FE065
:1034D0003046AEE6204602F082FBA8EB0700A08251
:1034E0000D98E0600E9820610020129013904D4AD4
:1034F000149007CA12AB07C3C5E91312A864189841
:1035000028B9D5E90D12286BC5E91012E8633AE035
:103510000120189005F110012846FFF72CF81798A4
:1035200040B92BA0009040F2FE622AA13EA0636841
:10353000FEF7ECFA2549203103C9CDE9150115A99B
:10354000204602F021FB58B921A0009040F20372FE
:1035500020A13EA06368FEF7D9FA6FF01B0068E671
:10356000211D2846FEF776FD8146B9F1000F06D0F1
:1035700009F11C0008B9179808B9484659E6002017
:10358000179000BFEBE600BF1898C0B110A3D4E9B4
:1035900000101A9ACDE90203CDE9002140F214721D
:1035A0000CA138A0199BFEF7B1FA224619A92846AA
:1035B00002F09AF806460EB130463AE600BF002007
:1035C00037E60000C92E000800FC0F40DC6200084E
:1035D000000000002E2E5C6C6974746C6566735C70
:1035E0006C66732E6300000025733A25643A6465A7
:1035F0006275673A20457870616E64696E67207302
:1036000075706572626C6F636B2061742072657691
:1036100020257525730A0000AD2E000800FC0F0060
:103620000CFCFF7FD062000825733A25643A64657C
:103630006275673A2042616420626C6F636B20613F
:1036400074203078257825730A00000025733A2508
:10365000643A7761726E3A205375706572626C6F6E
:10366000636B203078257820686173206265636F12
:103670006D6520756E7772697461626C6525730A79
:103680000000000025733A25643A64656275673A64
:103690002052656C6F636174696E67207B3078259A
:1036A000782C20307825787D202D3E207B307825A1
:1036B000782C20307825787D25730A002DE9FC418F
:1036C00006460F46144606F148022146304600F0F1
:1036D000EBFB054615B12846BDE8FC8104F1180056
:1036E00002F082FAE07D00F5C0600C4941EA00502A
:1036F00040F00800009004F11800012301906A4690
:1037000039463046FFF7D2F9054604F1180002F0B9
:1037100050FA0DB12846DFE70020DDE700FC0F007E
:103720007FB504460D4616460020431ECDE9003005
:103730000290324629460390204600F003F804B078
:1037400070BD00002DE9FF4F91B005460C46924632
:103750004FF0FF301090DAF80000A96E096A884235
:1037600005D2DAF80400A96E096A884204D36FF022
:10377000530015B0BDE8F08F00200E900F9000268A
:10378000002736E004220EA800EB870000235AF839
:103790002710CDE90013CDE9020213462A46002185
:1037A0002846FEF704FE80460EA951F8270001F0D6
:1037B00069FC0EA941F82700B8F1000F04D008F108
:1037C000540008B14046D4E708F1540181B10EAB72
:1037D00053F82710781C00EBD0735B10A0EB430369
:1037E0000DF1380C5CF823208B1A002B00DD3E46CF
:1037F0007F1C022FC6DB304606EBD0714910A6EBCA
:1038000041015AF821102160701C00EBD071491061
:10381000A0EB41015AF821106160304606EBD071EF
:103820004910A6EB41010EAA52F82110A160002018
:10383000E0600D90D9E14FF000084FF0FF300C90A0
:1038400000200B90F24903C9CDE90901002008903E
:10385000DDF84090A06802F097FCA060042204F11B
:103860000801501FFEF798FE0790A06801F00AFCBF
:10387000A06064E10C9802F0FFFB8044042106AADA
:103880002068CDE9018203910090A86E2A460021AC
:10389000C3692846FEF78BFD07463FB107F1540088
:1038A00010B90020A0754BE1384662E7042206A952
:1038B0000798FEF771FE0790069801F0D3FB0C996C
:1038C00048400690069802F0EFFB90B90C9802F081
:1038D000FFFBB0F5A06F09D1E068A96E8969B0FB64
:1038E000F1F201FB120008B9012000E00020A075F0
:1038F00026E1069802F0C0FB4044A96EC9698842DF
:1039000002D90020A0751BE106980C90069802F0E1
:10391000DFFBB0F5A06F46D1042205AB08F104002F
:103920002168CDE90232CDE90010A86E2A460021B7
:10393000C3692846FEF73BFD07463FB107F1540037
:1039400010B90020A075FBE0384612E7059801F099
:1039500099FB059007990598814202D00020A07537
:10396000EEE0069802F084FB0C9981EAC0700C909E
:10397000042207A9E86AFEF70FFEE862CDF840903E
:10398000069802F079FB4044E0600C9820610B98A7
:10399000A0820998A0610A99E1610898E0754FF04A
:1039A000FF300790CBE04FF0040B20E0012205AB85
:1039B00008EB0B0120688DE80B000392A86E2A46E5
:1039C0000021C3692846FEF7F2FC07463FB107F124
:1039D000540010B90020A0750EE03846C9E6012257
:1039E00005A90798FEF7D8FD07900BF1010B069883
:1039F00002F042FB5845D9D800BF069802F068FB98
:103A000060B9069802F043FB0B9988425ADB06988E
:103A100002F03DFB401C80B20B9053E0069802F090
:103A200057FBB0F5806F25D1069802F04AFB0B9941
:103A3000084480B20B90774909EA010076490843AF
:103A40000699884202D149F000493BE009F10100A2
:103A5000A0B3069802F01BFB8346484602F017FB12
:103A600083452FDC069802F02CFB002141EA8020E0
:103A7000814427E0069802F02BFBB0F5C06F21D1FE
:103A8000069802F0F5FA00F001000890082209AB50
:103A900008F104002168CDE90232CDE90010A86EDA
:103AA0002A460021C3692846FEF781FC074637B144
:103AB00007F1540018B90020A07541E002E009A800
:103AC00002F077F80699149801401E9A104081423E
:103AD00034D12068049008F10400059004AADDE9BF
:103AE00020300699984703900398002807DA039836
:103AF000543010B90020A07522E0039839E60398ED
:103B000010B9DDF8189018E044490698084009EA11
:103B10000101884202D14FF0FF390EE003980228DC
:103B20000BD1069802F0B3FA8346484602F0AFFA8A
:103B3000834502DC069840F0004900BF00BF99E6CB
:103B400000BFE068A8B3214605F13C0001F00AFF80
:103B5000E8B1E86B02F09BFA0746109802F097FA7A
:103B6000874204D1109840F0004010900FE0109868
:103B7000401C60B1E86B02F08AFA0746109802F028
:103B800086FA874203DA1098A0F5806010901F989B
:103B900048B1109802F07BFA0746A18A01F0C3FFF2
:103BA00081B21F980180109802F07EFA10B110982F
:103BB000DFE50AE0109802F06AFAA18A884202DA88
:103BC0006FF00100D5E50020D3E5204602F007F8AC
:103BD000701C00EBD0714910A0EB41010EAA52F805
:103BE0002110A1600D98401C0D900D980228FFF641
:103BF00022AE0BA16068CDE9000140F22E4209A17E
:103C00000DA02368FDF782FF6FF05300B1E50000BF
:103C1000C862000800FC0F000000F04F00FCFF7FAE
:103C2000000000002E2E5C6C6974746C6566735C19
:103C30006C66732E6300000025733A25643A657242
:103C4000726F723A20436F7272757074656420648B
:103C500069722070616972206174207B30782578E8
:103C60002C20307825787D25730A00002DE9FF4F40
:103C700089B080460E469346DBF800500C9818B188
:103C800040F2FF310C980180DFF86491D8F82000F1
:103C9000B061D8F82410F161A8E000BF55A1284612
:103CA000FCF792FA054453A12846FCF79BFA044618
:103CB000012C05D1012250A12846FCF778FA38B131
:103CC000022C07D102224DA12846FCF770FA08B950
:103CD0002544E3E705EB040A012008901FE045A115
:103CE0005046FCF771FA824442A15046FCF77AFA3A
:103CF000074607B914E0022F0DD102223FA150461A
:103D0000FCF755FA38B90898401E0890089828B969
:103D10000AEB0705C2E70898401C0890BA44DEE7A2
:103D200000BF287818B948460DB0BDE8F08FCBF831
:103D30000050484602F0D1F9022802D06FF013007B
:103D4000F2E7484602F0A3F940F2FF3188421DD065
:103D5000484602F09CF94FF0005141EA802040F0C3
:103D60000800069006F118000090254A31464046AA
:103D7000069B00F082F807900798002801DA079860
:103D8000D2E706F1180001F014FF00BF2AE02F214E
:103D90002846FCF7FBF908B90C9800E00020CDE9B3
:103DA00005850794049005A9164A04984FF0F0433E
:103DB000CDE90040CDE9022106F118023146404626
:103DC000FFF7C0FC8146B9F1000F01DA4846ABE7C6
:103DD000B9F1000F00D006E0F07D10B96FF00100DE
:103DE000A2E700BFD3E700BF254400BF55E70000AE
:103DF00000FC2F002F0000002E0000002E2E0000DF
:103E000000FC0F70093E00082DE9FF5F04460F46D5
:103E100016462546D5F80080B146384602F04DF9E1
:103E20000390A868039901F07EFE82466868D9E98C
:103E300000125346CDE9020ACDE9001242460021A4
:103E40004046FEF7CDF98346BBF1000F03D058463C
:103E500004B0BDE8F09F384602F02FF9A968884207
:103E600009D0384602F029F9A968884201D9012011
:103E7000EEE70220ECE70020EAE72DE9FE430546E5
:103E80000E4617461C46DDF82880204602F015F93C
:103E90008146002023463A4631468DE801032846F4
:103EA00000F0CAF8BDE8FE832DE9FF4107468846C9
:103EB000164601A8134B134A0C3A41460090384667
:103EC000FFF7DBFF0546002D05DAA81C18B12846D0
:103ED00004B0BDE8F081A81C88B101AC206801F0F5
:103EE000D1F82060606801F0CDF86060A06801F052
:103EF000C9F8A06000BF01A9304601F069FD0020AB
:103F0000E6E700000C00F07F2DE9FF4F83B080460C
:103F100016461C46DDF85490139DDDF850A005EBC5
:103F20000900D8F86810C969884204D96FF05300B5
:103F300007B0BDE8F08F79E04F462EB33068801CA3
:103F400010BBD6E901010844A8421DD97068A842F7
:103F500014D8D6E90120AA1A811A384601F0E3FDE7
:103F600007467268AA1AF06881183A465046FCF76C
:103F7000E9F8BA443D44A9EB070957E07068411BD2
:103F8000384601F0D0FD07462068801C10BBD4E9FC
:103F900001010844A8421DD96068A84214D8D4E998
:103FA0000120AA1A811A384601F0BDFD0746626851
:103FB000AA1AE06881183A465046FCF7C3F8BA449A
:103FC0003D44A9EB070931E06068411B384601F028
:103FD000AAFD07466FF001002060D8F8680041692B
:103FE0002846FEF727F86060D8F868205169109AD3
:103FF000A818FEF726F80290D8F86800816A02989F
:1040000001F091FDA060D4E902026168CDE90012DF
:1040100002904046DDE91123049900F00DF8834633
:10402000BBF1000F01DA584682E700BFB9F1000F7B
:1040300082D100207CE700002DE9F04F87B0814657
:104040000D4692461E46D5F80CB02869069000240D
:10405000294609F13C0001F085FC78B1504602F098
:1040600016F858B1D9F83C0002F011F8074630466E
:1040700002F00DF8874201DCA4F580647AE006982E
:1040800001F0FAFFABEB000B069F042106AA28689B
:104090000B46CDE901B2039100904A460021484603
:1040A000FEF785F90590059818B1059807B0BDE8A9
:1040B000F08F069800F0D6FF784020F00040069080
:1040C000504601F0E4FFF8B1384602F001F8B0F5CF
:1040D000806F19D1384601F0DAFF8046301B01F0BD
:1040E000D6FF804510DC301B27490840274908438C
:1040F000B84202D16FF00100D8E7384601F0E1FF85
:10410000002141EA802004440AEA0701301B00EA4A
:104110000A0081422DD1384601F0BDFF10B16FF089
:104120000100C3E7384601F0C8FF0490129901F07E
:10413000FAFC80460BF10401DDE9102011442A68E5
:104140004346CDE90208CDE900214A460021484610
:10415000FEF72DF90590059808B10598A6E7129A83
:10416000A2EB0801119A02EB0800FCF704F83819D9
:104170009CE700BF069801F07FFF001D58457FF6C1
:104180007EAF6FF0010091E700FC0F0000001040CF
:104190002DE9F04F8BB005460C4690469946DDE977
:1041A000157BDDF850A02846FDF7ECFF03A9284653
:1041B000FEF726FC06461EB130460BB0BDE8F08F78
:1041C000E07D8DF82300A0690990E1690A914B46D2
:1041D000424603A92846CDE9017BCDF800A0FEF7B1
:1041E000FDFF06460EB13046E7E70398A06104994B
:1041F000E1610120E07505F12001204601F0C4FCD9
:1042000020B91FB903982862049969620020D4E795
:104210002DE9FF4F8FB00F4615469946DDF88CA06B
:10422000DDF87080EFE0484601F026FF2844F96889
:10423000884226D2484601F01FFF054404210EAAF9
:1042400038680B46CDE901520391009000210F9A86
:104250001046FEF7ACF806461EB1304613B0BDE876
:10426000F08F0E9800F0FEFE80EA090040F000405A
:104270000E9038680C90281D0D900CACDDF838902D
:104280000FE01D9800280ADDD8F800000E90D8F83D
:10429000044008F108081D98401E1D9001E0002010
:1042A000DCE759480B901E990B9808400E99014085
:1042B0001E9A0B9810401F9A1040814200D0A2E035
:1042C0001E9801F0E4FE40B30EA85049002205926A
:1042D000CDE9062108901D98CDE9010203924B46D5
:1042E000CDF8008004922A4639460F98FFF790FFD8
:1042F0000646002E01DA3046B0E706B183E00E989C
:1043000001F0C5FE2099884205DB0E9801F0BFFE42
:104310002199884200DB76E000BF0E9801F0DDFEB7
:1043200000286FD00E9801F0D8FE40F201118842AB
:1043300028D10E9801F0C1FE86B20E9801F0A7FEBA
:104340000A900A998A1B2299114409B2721C92B2EE
:104350002498CDE9061A059208904FF000502C4998
:104360000022CDE90121531E2146CDE9030600922A
:104370000F98FFF74DFF8346BBF1000F01D0584661
:104380006CE73FE00E9801F0A8FEB0F5817F2BD1DD
:10439000002623E0A3460E9801F079FE22990844F6
:1043A000810206EB46001BF8200000F5407041EA50
:1043B000005006EB46010BEB810189680843099028
:1043C00006EB46000BEB8000426809992498D04721
:1043D0000A900A9808B10A9840E7761C0E9801F0F6
:1043E0006CFEB042D6D80DE00022229842EA80202E
:1043F0000E9A811822462498D04706460EB13046C0
:104400002CE700BF00BF0EE70000F07F1544000856
:1044100000FC0F602DE9F04706460D4690463446F5
:1044200005F0805008B11A4800E01A48074607EA2C
:1044300005002168394088420DD0206801F02BFE2C
:1044400048B9134805EA0001134A20681040134A8E
:104450001043814202D10120BDE8F087284601F0D7
:1044600037FEB0F5806F11D1284601F010FE81466D
:10447000206801F00CFE814508DC284601F021FE91
:10448000002141EA80202168084420600020E3E701
:1044900000FCFF7F00FC0F7000FC0F000000F04FDD
:1044A00070B505460E4600240CB1204670BD31465D
:1044B000284600F0E3F804462046F7E7F0B597B049
:1044C00005460C46206B00F4802060B1206B00F4A0
:1044D000801020B904F140012846FEF74CF8206B0B
:1044E00020F480202063206B00F40030002879D075
:1044F000676B206B00F48010002860D154223A4989
:1045000002A8FBF71FFEA06A0C90E16A0D91606B98
:104510000F9095E80F0012AE0FC629462846FEF709
:104520002AF822E0012301AA02A9284600F02AFA6B
:104530000646002E02DA304617B0F0BD012301AA6C
:104540002146284600F074FB0646002E01DA30466C
:10455000F2E72868401C38B112A92846FEF70BF88C
:1045600029462846FEF707F800BF616BE06A8142E2
:10457000D8D321E001232A4604F140012846FDF763
:1045800073FE06462EB106F1540000B902E0304633
:10459000D2E712E015A0009040F6E62214A119A07F
:1045A000A36BFDF7B3FA2146284600F077FC0646D8
:1045B0000EB13046C0E700BFDCE700BF04E0E16AAF
:1045C000606B01F0A9FA6063A06BA062616BE162AD
:1045D000206B20F400302063206B40F48030206397
:1045E000676300BF0020A7E74463000800000000E5
:1045F0002E2E5C6C6974746C6566735C6C66732ECD
:104600006300000025733A25643A64656275673A71
:104610002042616420626C6F636B2061742030788B
:10462000257825730A0000002DE9F04105460E4665
:1046300017469846002414B12046BDE8F081434651
:104640003A463146284600F02DF804462046F4E765
:1046500070B506460C46606BE0633046FDF792FD90
:104660002146304600F01AFC05460DB1284670BDC3
:10467000206B20F4801020630020F8E770B5054619
:104680000C462146284600F06FFA06462146284689
:1046900001F054FA206D006810B9E06C00BF00BF53
:1046A000304670BD2DE9F84304460D4616461F46B8
:1046B00005483B46324629460090204600F006F861
:1046C00080464046BDE8F883386300082DE9FF4F77
:1046D00087B081460C461F46DDF850A007F0020067
:1046E00002280BD1484600F035FE8046B8F1000F95
:1046F00003D040460BB0BDE8F08F00BFC4F850A017
:10470000276300206063E0630021E164231D09AAA0
:10471000191D4846FFF7AAFA0646002E08DAB01C13
:1047200020B9A08840F2FF31884201D1354615E119
:104730000120A0712146484601F0FCF9B01CA0BB45
:1047400007F4807010B96FF0010507E10998FBF7D5
:1047500027FD8046D9F86C00404502D26FF0230552
:10476000FCE0182101A8FBF706FDA088804941EA7A
:1047700080200190A0884FF4801141EA802040EA17
:104780000800039009990491A0887A4941EA8020A1
:104790000323059001AA04F108014846FEF786F9B3
:1047A00005461DB16FF02305D8E001E0714E32E0FF
:1047B00007F4007010B16FF01005CFE0304601F043
:1047C0008CFC012802D06FF01405C7E007F480606C
:1047D00040B1A088674941EA8026206B40F48030D0
:1047E000206318E004F128000090A0884FF00051E9
:1047F00041EA802040F008035F4A04F1080148467E
:10480000FFF73BFB0646002E01DA3546A6E004F131
:104810002800FEF720F84FF000084BE094F8300035
:1048200000F0010060B3206D406808EB480100EB28
:10483000810040680090206D406808EB480110F846
:10484000210000F540700005A18840EA8120216D1B
:10485000496808EB480201EB8201896840EA0103DC
:10486000464A04F108014846FFF707FB8346BBF1BF
:10487000000F04DA0BF1020008B15D466EE000BFE4
:1048800094F8300000F00200022811D1206D406839
:1048900008EB480100EB81008068D9F87410884269
:1048A00002D96FF01B0559E0206B40F48030206383
:1048B00008F10108206D80684045AFD8206D006880
:1048C00018B1206D0168E16409E0D9F86810886AC0
:1048D0002B49E164E06C10B96FF00B053EE004F188
:1048E00040014846FDF74BFE304601F0F6FB40F232
:1048F0000121884230D16FF00100A062304601F002
:10490000DCFBE062206B40F480102063A06A20642E
:1049100000216164D9F86800816AA164E06AD8B1B5
:1049200040F2FE31A06C01F0FEF8A1884FF0005279
:1049300042EA812140EA010BE06C5B460E4A04F139
:10494000080100904846FFF798FA8046B8F1000F3A
:1049500001DA454602E000BF0020CBE6206B40F4C0
:104960000020206321464846FFF788FE2846C1E61E
:10497000000010400000102000FC0F7000FCFF7FC2
:10498000C00000202DE9F04F87B006460C46924645
:104990001F46D046B946206B00F4003050B1214686
:1049A0003046FFF78BFD05461DB1284607B0BDE830
:1049B000F08F00BF616BE06A814201D30020F5E710
:1049C000626BE06A811A384601F0ADF80746B946D5
:1049D00072E0206B00F4802020B1E06BB16EC969F9
:1049E000884222D1206B00F48010A8B904F13C0267
:1049F000101F636BE16ACDE90013CDE90202121DBD
:104A000000213046A36AFDF7D3FE8346BBF1000FB9
:104A100001D05846CAE704E06FF00100A063606B64
:104A2000E063206B40F480202063B06EC069E26BCD
:104A3000811A484601F077F80546206B00F4801093
:104A4000E0B1A0881F4A42EA8020E16BCDE90485ED
:104A5000CDE902011C49B06EC06904F14003002297
:104A6000CDE9000104F108013046FFF74DFA834615
:104A7000BBF1000F01D0584698E713E0D4E90E01CE
:104A80008DE803010395B06E04F140020021C36973
:104A90003046FDF78CFC8346BBF1000F01D0584631
:104AA00084E700BF606B28446063E06B2844E063E8
:104AB000A844A9EB050900BFB9F1000F89D1384618
:104AC00074E700000000102000FCF7FF70B50546F9
:104AD0000E4600231A463146284600F007F80446E1
:104AE000002C01DA204670BD0020FCE72DE9F047DC
:104AF00081460C4615461E46676B0EB92F460BE0E5
:104B0000012E02D1606B471906E0022E04D1214626
:104B1000484600F01BF84719D9F87000B84203D294
:104B20006FF01500BDE8F087606BB84201D13846E0
:104B3000F8E721464846FFF7C1FC8046B8F1000F70
:104B400001D04046EEE767633846EBE770B50546AF
:104B50000C46206B00F4003020B1E16A606B00F07D
:104B6000DBFF70BDE06AFCE72DE9F04387B08146CA
:104B70000C46206B00F4002018B1002007B0BDE8FF
:104B8000F08321464846FFF799FC05462DB1206B7E
:104B900040F4002020632846F0E7206B00F48030CA
:104BA000002843D004F1080001F00EF800283DD1A0
:104BB000206B00F4801028B140F20126E76CD4F895
:104BC0002C800BE040F20226D4E90A01CDE9010174
:104BD00001A8FDF76FFE01AF4FF008083005A1886E
:104BE00040EA812040EA0800CDE90307A0884FF0A1
:104BF000815141EA8020216D896808430590206D2C
:104C000041680223069103AA04F108014846FDF712
:104C10004DFF05462DB1206B40F40020206328464F
:104C2000ACE7206B20F48030206300BF0020A5E7B4
:104C30002DE9F04F85B005460C4692461F46CDF84B
:104C400010A0B846206B00F4802050B121462846C1
:104C5000FFF734FC06461EB1304605B0BDE8F08FC4
:104C600000BF208E00F4006028B1616BE06A8142D1
:104C700001D2E06A6063606B3844296F884202D9D0
:104C80006FF01A00E9E7206B00F40030D0B9616BD7
:104C9000E06A814216D9D4F83490E06A60630DE08E
:104CA00000200390012303AA21462846FFF7C0FFF6
:104CB0000646002E01DA3046CFE700BF606B48455C
:104CC000EED300BF206B00F4801040B3626B02EBA8
:104CD0000800E16A00F020FF8146AA6E926C12B1D2
:104CE000AA6E926C01E0AA6ED269D108AA6E906A8F
:104CF00000F019FF0646314640F2FE3000F013FF87
:104D000081450CD921462846FFF7A2FC06462EB164
:104D1000206B40F40020206330469EE700BF9EE0F9
:104D2000206B00F4003020B1E06BA96EC9698842A5
:104D30004FD1206B00F48010F0BB206B00F40030EA
:104D400008BB606BF8B104F13C010A1F606B401EA8
:104D5000E36ACDE90030CDE902210A1D0021284691
:104D6000A36AFDF725FD8346BBF1000F05D0206B3C
:104D700040F40020206358466FE704F140012846C4
:104D8000FDF7FDFB00BF2846FDF7FCF904F13C00F0
:104D9000011F626BCDE9002102902A46011D2846C1
:104DA000A36BFDF721FC8146B9F1000F07D0206B02
:104DB00040F40020206300E002E048464DE704E0B4
:104DC0006FF00100A063606BE063206B40F4003083
:104DD0002063A86EC069E26B811A404600F0A3FE12
:104DE00006462BE00498D4E90E120123CDE9020611
:104DF000CDE900122A4604F140012846FDF780FA69
:104E00008146B9F1000F09D009F1540000B906E05C
:104E1000206B40F40020206348461EE70FE0214647
:104E2000284600F03BF88146B9F1000F05D0206B11
:104E300040F40020206348460FE700BFD2E700BFE0
:104E4000606B30446063E06B3044E063049830444E
:104E50000490A8EB06082846FDF794F900BFB8F1C6
:104E6000000F7FF45DAF206B20F4002020633846F4
:104E7000F3E62DE9F04705460E461746984600240E
:104E800014B12046BDE8F08743463A4631462846ED
:104E9000FFF778FD81464846F4E70000F0B589B099
:104EA00005460C468AE008A92846FDF7D3F80646D1
:104EB00016B1304609B0F0BD28460899FDF7CAF989
:104EC00006462EB106F1540000B968E03046F1E71D
:104ED000002748E0206B00F48010D0B1012107AA20
:104EE000A088374B43EA8020CDE9037205910290F8
:104EF0003449E06BC01B04F140030022CDE90001FE
:104F000004F108012846FEF7FFFF0646A6B1304629
:104F1000D0E7012107AAA06BCDE9017203910090AF
:104F2000E06BC31B2A4604F140012846FDF73FFA17
:104F300006460EB13046BDE7012007A9089A034690
:104F4000CDE90027CDE902102A4605F110012846D7
:104F5000FDF7D6F906462EB106F1540000B91EE061
:104F60003046A7E77F1CE06BB842B3D8AB6E9A6AB5
:104F7000E969E06CFBF7E6F8286920646969616417
:104F8000A969A16405F110012846FDF7F8FA08980F
:104F9000A063206B40F40030206300208AE70AA061
:104FA000009040F6972209A10DA0089BFCF7AEFDEA
:104FB00005F110012846FDF7DEFA00BF73E7000097
:104FC0000000102000FCF7FF000000002E2E5C6C9B
:104FD0006974746C6566735C6C66732E63000000A4
:104FE00025733A25643A64656275673A20426164C4
:104FF00020626C6F636B2061742030782578257394
:105000000A00000070B505460E4600240CB120468B
:1050100070BD31462846FFF759FD04462046F7E7A4
:105020002DE9F04705460E4617469846002414B170
:105030002046BDE8F08743463A4631462846FFF70A
:10504000F7FD81464846F4E770B505460E46002454
:105050000CB1204670BD3146284600F0D7FD04460D
:105060002046F7E701B59DF8000000069DF8011005
:1050700040EA01409DF8021040EA01209DF803102B
:10508000084308BD01B59DF800009DF8011040EAF5
:1050900001209DF8021040EA01409DF8031040EA0B
:1050A000016008BDF0B58DB0044604F13C0000F08D
:1050B0004FFC10B900200DB0F0BDE06B00F0E7FF31
:1050C000074619A1606CCDE90171009041F2190207
:1050D00016A11BA0236CFCF719FD04F1400203A9E3
:1050E0002046FEF71DFB05460DB12846E3E7E06BC1
:1050F00000F0CDFF0646002240F2FF31204600F0CE
:10510000DBF900200B900C90194840EA862001231F
:105110000B900BAA03A92046FDF7C8FC05460DB16C
:105120002846C8E70020C6E7000000002E2E5C6C71
:105130006974746C6566735C6C66732E6300000042
:1051400025733A25643A64656275673A2046697842
:10515000696E67206D6F7665207B307825782C200E
:10516000307825787D203078257825730A00000076
:105170000000F04FF0B5A1B0064606F1300000F097
:1051800001FC10B9002021B0F0BD20224E4919A821
:10519000FAF7D8FF86E01FAA11A93046FEF7C0FA39
:1051A00005460DB12846EEE79DF87B00002873D137
:1051B00009AA1FA9304600F0DFF80446002C03DAE4
:1051C000A01C08B12046DEE7A01CA8B93FA119A881
:1051D000C069CDE9000141F24E023DA141A01F9BF3
:1051E000FCF794FC11AA19A93046FEF767FA0546A8
:1051F0000DB12846C7E755E007A82346444A09A948
:1052000000903046FEF739FE0746002F01DA384697
:10521000B9E707A800F0CDFC1FA8079902689142E2
:1052200003D108994268914207D007994268914298
:1052300005D108990268914201D1012100E00021C5
:10524000002928D121A319AADDE90710D269CDE9E7
:105250000203CDE9002141F264021DA12DA01F9B94
:10526000FCF754FC07A800F0BFFC1749203103C924
:10527000CDE9050107A80123069005AA19A9304622
:10528000FDF714FC054607A800F093FC15B128466D
:1052900079E701E006E000BF202211A919A8FAF77A
:1052A00051FF00BF1FA800F08FFC00283FF473AF30
:1052B00000BF306B00F001FF404244B2214630464F
:1052C00000F01EF95FE700004064000800000000E5
:1052D0002E2E5C6C6974746C6566735C6C66732EE0
:1052E0006300000025733A25643A64656275673A85
:1052F00020466978696E67206F727068616E207BE6
:10530000307825782C20307825787D25730A0000A8
:1053100000FCFF7F25733A25643A64656275673A3D
:1053200020466978696E672068616C662D6F7270BF
:1053300068616E207B307825782C20307825787D48
:10534000202D3E207B307825782C20307825787DE4
:1053500025730A0070B505462846FFF7A3FE0446EC
:105360000CB1204670BD2846FFF704FF04460CB17F
:105370002046F7E70020F5E72DE9F04188B0064622
:105380000F4614460020A0610121E161804626E01D
:10539000B06E006AB8EB500F04D36FF0530008B042
:1053A000BDE8F08108F10108059638680690796833
:1053B000079105A80E4900220E4BCDE90032CDE938
:1053C00002100D4B04F1180221463046FEF7BAF9DF
:1053D00005461DB1A81C08B12846E0E700BF04F14E
:1053E000180000F0F1FB0028D2D06FF00100D6E7E2
:1053F000FD53000808000020FF03F07F2DE9F0476F
:1054000086B006468A46144637463D68A0460822BE
:1054100004ABD8E900018DE80B000392A86E2A4680
:1054200005F11001C3692846FCF7C1FF8146B9F1B7
:10543000000F03D0484606B0BDE8F08704A800F08E
:10544000B8FB391D04A800F09FFB08B10120F2E76A
:105450000020F0E72DE9F04106468846144600207A
:10546000A0610121E16100271CE0B06E006AB7EB8A
:10547000500F03D36FF05300BDE8F0817F1C41460D
:1054800004F1180000F080FB08B90020F4E704F1F3
:10549000180221463046FEF743F905460DB128466D
:1054A000EAE700BF04F1180000F08EFB0028DCD012
:1054B0006FF00100E0E7000010B50F4C036B2340D4
:1054C00040F2FF34A14203D00C4C44EA812400E0B6
:1054D00000242343036340F2FF33994201D0136851
:1054E00000E00023436340F2FF33994201D0546847
:1054F00000E00024846310BDFF0300800000F04F33
:1055000070B504460D46206B2844206304F130003A
:1055100000F038FA216B60F3DF712163002070BD69
:1055200038B505460020009000236A460449284605
:1055300000F008F804460CB1204638BD0098FCE79E
:10554000415900082DE9FF4F8DB007460D4616461C
:105550002022634905A8FAF7F5FD4FF0000A7BE029
:10556000B86E006ABAEB500F04D36FF0530011B05D
:10557000BDE8F08F0AF1010A4FF000080CE00BA81B
:1055800050F828103046A8478146B9F1000F01D0E5
:105590004846ECE708F10108B8F1020FEFDB0BAA6F
:1055A00005A93846FEF7BCF804460CB12046DEE7F4
:1055B0004FF000084BE003A800904FF0005040EA85
:1055C000882040F00803474A05A93846FEF755FCF5
:1055D0008146B9F1000F05DA09F1020000B932E0A5
:1055E0004846C4E703A8FDF736F9484600F075FDC4
:1055F00040F2022188420CD104988DE861003A46BD
:1056000000213846039BFDF760F90446D4B12046DB
:10561000ADE71098B0B1484600F05FFDB0F5007FEF
:1056200010D14FF0000B0AE003A850F82B103046C1
:10563000A84704460CB1204699E70BF1010BBBF1DA
:10564000020FF1DB00BF08F101001FFA80F8BDF87E
:1056500028004045AFDC00BF0BA800F0B5FA0028D9
:105660003FF47EAFBC6A37E0A079012800D032E079
:10567000206B00F48030A0B1206B00F4801080B962
:10568000E06A8DE861003A4604F140013846A36AB9
:10569000FDF71BF98046B8F1000F01D0404666E7E0
:1056A00000BF206B00F40030A0B1206B00F480102C
:1056B00080B9606B8DE861003A4604F140013846DC
:1056C000A36BFDF702F98046B8F1000F01D0404608
:1056D0004DE700BF00BF2468002CC5D1002046E77D
:1056E0002064000800FC0F702DE9F04790B00546DB
:1056F0008A46144605F12001504600F045FA18B9D3
:105700002068286261686962AE6A17E006F10801E4
:10571000504600F039FA18B92068B0606168F1604D
:10572000B079022809D106F12C01504600F02CFA7C
:1057300018B92068F062616831633668002EE5D1DF
:1057400008AA51462846FFF717FE0746002F05DA3C
:10575000B81C18B1384610B0BDE8F087B81C002856
:105760005ED001212846FFF7CBFE8146B9F1000F3C
:1057700001D04846EFE740F2FF3608A905F13000B6
:1057800000F0F0F800281CD0286B00F080FC0646E2
:1057900053A10998CDE9016100904FF47C6251A1B9
:1057A00055A0089BFCF7B2F9002240F2FF312846D1
:1057B000FFF782FE384600F06AFCB04201DDA7F533
:1057C0008067204600F010FA0020049005900690B3
:1057D000079040F2FF30864203D0574840EA8620C7
:1057E00000E000200223CDE90674049004AA08A971
:1057F0002846FDF75BF98146204600F0DAF9B9F159
:10580000000F01D04846A6E74FF0FF312846FFF7CA
:1058100077FE8146B9F1000F01D048469BE700BFF3
:1058200008AA51462846FFF715FE8046B8F1000F3A
:1058300004D008F1020008B140468CE708F10200EC
:1058400000284AD040F2FF3608A905F1300000F0E8
:1058500089F8A8B1286B00F01AFC064620A1099827
:10586000CDE90161009040F6E7721EA122A0089BDD
:10587000FCF74CF9002240F2FF312846FFF71CFEEE
:10588000204600F0B1F900200490059006900790A2
:1058900040F2FF30864203D0274840EA862000E0ED
:1058A000002004909DF8370000F5C060234941EACC
:1058B000005040F008000223CDE9060404AA08A91C
:1058C0002846FDF7F3F88046204600F072F9B8F15B
:1058D000000F01D040463EE700BF00203BE700003C
:1058E000000000002E2E5C6C6974746C6566735C3D
:1058F0006C66732E6300000025733A25643A646574
:105900006275673A20466978696E67206D6F7665C3
:10591000207768696C652072656C6F636174696E6D
:1059200067207B307825782C20307825787D2030D2
:105930007825780A25730A000000F04F00FC0F005C
:1059400002460B4611460868401C0860002070475C
:1059500010B50446206800F0BBFB08B1012010BD63
:105960000020FCE770B504460D46206800F0B0FB4F
:1059700030B12946201D00F007F908B9012070BD9B
:105980000020FCE710B50446206800F096FB08B143
:10599000012010BD0020FCE70246002105E052F87E
:1059A000210008B100207047491C0329F7DB0120C2
:1059B000F9E710B50446206800F0E6FB2060606857
:1059C00000F0E2FB6060A06800F0DEFBA06010BDAC
:1059D00010B50246002007E052F8203051F8204070
:1059E000634042F82030401C0328F5DB10BD000066
:1059F00070B58AB004460D46A5660026A06E006B01
:105A000018B1A06E006BE06008E0A16E886A3E49A4
:105A1000E160E06810B96FF00B066FE0A06E406BBC
:105A200018B1A06E416BE16108E0A16E886A364949
:105A3000E161E06910B96FF00B065FE02146204696
:105A4000FCF79DFD04F110012046FCF798FDA06EC7
:105A5000806B18B1A06E816B616608E0A16EC86AA8
:105A600029496166606E10B96FF00B0646E0A06EC2
:105A7000C06BE066E06E08B9FF20E066A06E006CC7
:105A80002067206F10B96FF000402067A06E406C57
:105A90006067606F10B940F2FE3060674FF0FF3012
:105AA0002062014661620020A062E06207900890D7
:105AB000164A099007CA07AB07C3C4E91012E0638E
:105AC000002004900590124A0690D2E900109268D6
:105AD000CDE90502049108460599C4E90D12206339
